{
  "contractName": "FlightSuretyApp",
  "abi": [
    {
      "constant": true,
      "inputs": [],
      "name": "REGISTRATION_FEE",
      "outputs": [
        {
          "name": "",
          "type": "uint256"
        }
      ],
      "payable": false,
      "stateMutability": "view",
      "type": "function"
    },
    {
      "inputs": [
        {
          "name": "dataContract",
          "type": "address"
        }
      ],
      "payable": false,
      "stateMutability": "nonpayable",
      "type": "constructor"
    },
    {
      "anonymous": false,
      "inputs": [
        {
          "indexed": false,
          "name": "airline",
          "type": "address"
        },
        {
          "indexed": false,
          "name": "flight",
          "type": "string"
        },
        {
          "indexed": false,
          "name": "timestamp",
          "type": "uint256"
        },
        {
          "indexed": false,
          "name": "status",
          "type": "uint8"
        }
      ],
      "name": "FlightStatusInfo",
      "type": "event"
    },
    {
      "anonymous": false,
      "inputs": [
        {
          "indexed": false,
          "name": "airline",
          "type": "address"
        },
        {
          "indexed": false,
          "name": "flight",
          "type": "string"
        },
        {
          "indexed": false,
          "name": "timestamp",
          "type": "uint256"
        },
        {
          "indexed": false,
          "name": "status",
          "type": "uint8"
        }
      ],
      "name": "OracleReport",
      "type": "event"
    },
    {
      "anonymous": false,
      "inputs": [
        {
          "indexed": false,
          "name": "index",
          "type": "uint8"
        },
        {
          "indexed": false,
          "name": "airline",
          "type": "address"
        },
        {
          "indexed": false,
          "name": "flight",
          "type": "string"
        },
        {
          "indexed": false,
          "name": "timestamp",
          "type": "uint256"
        }
      ],
      "name": "OracleRequest",
      "type": "event"
    },
    {
      "anonymous": false,
      "inputs": [
        {
          "indexed": false,
          "name": "flightCode",
          "type": "string"
        },
        {
          "indexed": false,
          "name": "status",
          "type": "uint8"
        }
      ],
      "name": "FlightStatusChange",
      "type": "event"
    },
    {
      "constant": true,
      "inputs": [],
      "name": "isOperational",
      "outputs": [
        {
          "name": "",
          "type": "bool"
        }
      ],
      "payable": false,
      "stateMutability": "view",
      "type": "function"
    },
    {
      "constant": false,
      "inputs": [
        {
          "name": "_newAirline",
          "type": "address"
        }
      ],
      "name": "registerAirline",
      "outputs": [
        {
          "name": "success",
          "type": "bool"
        },
        {
          "name": "votes",
          "type": "uint256"
        }
      ],
      "payable": false,
      "stateMutability": "nonpayable",
      "type": "function"
    },
    {
      "constant": true,
      "inputs": [
        {
          "name": "newAirline",
          "type": "address"
        }
      ],
      "name": "isAirlineRegistered",
      "outputs": [
        {
          "name": "",
          "type": "bool"
        }
      ],
      "payable": false,
      "stateMutability": "view",
      "type": "function"
    },
    {
      "constant": false,
      "inputs": [
        {
          "name": "name",
          "type": "string"
        },
        {
          "name": "timestamp",
          "type": "uint256"
        }
      ],
      "name": "registerFlight",
      "outputs": [],
      "payable": false,
      "stateMutability": "nonpayable",
      "type": "function"
    },
    {
      "constant": false,
      "inputs": [
        {
          "name": "_airlineAddress",
          "type": "address"
        }
      ],
      "name": "activateAirline",
      "outputs": [],
      "payable": true,
      "stateMutability": "payable",
      "type": "function"
    },
    {
      "constant": true,
      "inputs": [
        {
          "name": "_airlineAddress",
          "type": "address"
        }
      ],
      "name": "isAirlineActivated",
      "outputs": [
        {
          "name": "",
          "type": "bool"
        }
      ],
      "payable": false,
      "stateMutability": "view",
      "type": "function"
    },
    {
      "constant": false,
      "inputs": [
        {
          "name": "_airline",
          "type": "address"
        },
        {
          "name": "_flight",
          "type": "string"
        },
        {
          "name": "_timestamp",
          "type": "uint256"
        },
        {
          "name": "_passenger",
          "type": "address"
        }
      ],
      "name": "buyInsurance",
      "outputs": [],
      "payable": true,
      "stateMutability": "payable",
      "type": "function"
    },
    {
      "constant": false,
      "inputs": [
        {
          "name": "airline",
          "type": "address"
        },
        {
          "name": "flight",
          "type": "string"
        },
        {
          "name": "timestamp",
          "type": "uint256"
        },
        {
          "name": "statusCode",
          "type": "uint8"
        }
      ],
      "name": "processFlightStatus",
      "outputs": [],
      "payable": false,
      "stateMutability": "nonpayable",
      "type": "function"
    },
    {
      "constant": false,
      "inputs": [
        {
          "name": "airline",
          "type": "address"
        },
        {
          "name": "flight",
          "type": "string"
        },
        {
          "name": "timestamp",
          "type": "uint256"
        },
        {
          "name": "passenger",
          "type": "address"
        }
      ],
      "name": "claimInsuranceAmount",
      "outputs": [],
      "payable": false,
      "stateMutability": "nonpayable",
      "type": "function"
    },
    {
      "constant": false,
      "inputs": [],
      "name": "withdrawAmount",
      "outputs": [],
      "payable": false,
      "stateMutability": "nonpayable",
      "type": "function"
    },
    {
      "constant": false,
      "inputs": [
        {
          "name": "_airline",
          "type": "address"
        },
        {
          "name": "_flight",
          "type": "string"
        },
        {
          "name": "_timestamp",
          "type": "uint256"
        }
      ],
      "name": "fetchFlightStatus",
      "outputs": [],
      "payable": false,
      "stateMutability": "nonpayable",
      "type": "function"
    },
    {
      "constant": false,
      "inputs": [],
      "name": "registerOracle",
      "outputs": [],
      "payable": true,
      "stateMutability": "payable",
      "type": "function"
    },
    {
      "constant": true,
      "inputs": [],
      "name": "getMyIndexes",
      "outputs": [
        {
          "name": "",
          "type": "uint8[3]"
        }
      ],
      "payable": false,
      "stateMutability": "view",
      "type": "function"
    },
    {
      "constant": false,
      "inputs": [
        {
          "name": "index",
          "type": "uint8"
        },
        {
          "name": "airline",
          "type": "address"
        },
        {
          "name": "flight",
          "type": "string"
        },
        {
          "name": "timestamp",
          "type": "uint256"
        },
        {
          "name": "statusCode",
          "type": "uint8"
        }
      ],
      "name": "submitOracleResponse",
      "outputs": [],
      "payable": false,
      "stateMutability": "nonpayable",
      "type": "function"
    }
  ],
  "bytecode": "0x608060405260016000806101000a81548160ff0219169083151502179055506000600260146101000a81548160ff021916908360ff16021790555034801561004657600080fd5b506040516020806136528339810180604052810190808051906020019092919050505033600060016101000a81548173ffffffffffffffffffffffffffffffffffffffff021916908373ffffffffffffffffffffffffffffffffffffffff16021790555080600260006101000a81548173ffffffffffffffffffffffffffffffffffffffff021916908373ffffffffffffffffffffffffffffffffffffffff16021790555050613557806100fb6000396000f3006080604052600436106100db576000357c0100000000000000000000000000000000000000000000000000000000900463ffffffff168063010c5c97146100e0578063339d25901461013b57806334ce66901461014557806339cfc9951461017b5780633ad3d6c4146101c0578063534844a21461021b5780635f1cc0e61461023257806364b4f7511461028557806395bce951146102b0578063bdfd987714610335578063c10f270014610397578063cd905dff14610416578063dab8678314610445578063e7bdde3b146104bd578063f83f11c01461055d575b600080fd5b3480156100ec57600080fd5b50610121600480360381019080803573ffffffffffffffffffffffffffffffffffffffff1690602001909291905050506105c2565b604051808215151515815260200191505060405180910390f35b61014361073f565b005b610179600480360381019080803573ffffffffffffffffffffffffffffffffffffffff169060200190929190505050610867565b005b34801561018757600080fd5b506101be60048036038101908080359060200190820180359060200191909192939192939080359060200190929190505050610bf5565b005b3480156101cc57600080fd5b50610201600480360381019080803573ffffffffffffffffffffffffffffffffffffffff169060200190929190505050610d75565b604051808215151515815260200191505060405180910390f35b34801561022757600080fd5b50610230610ef2565b005b34801561023e57600080fd5b50610247611045565b6040518082600360200280838360005b83811015610272578082015181840152602081019050610257565b5050505090500191505060405180910390f35b34801561029157600080fd5b5061029a6111ba565b6040518082815260200191505060405180910390f35b3480156102bc57600080fd5b50610333600480360381019080803573ffffffffffffffffffffffffffffffffffffffff16906020019092919080359060200190820180359060200191909192939192939080359060200190929190803573ffffffffffffffffffffffffffffffffffffffff1690602001909291905050506111c6565b005b34801561034157600080fd5b50610376600480360381019080803573ffffffffffffffffffffffffffffffffffffffff16906020019092919050505061138b565b60405180831515151581526020018281526020019250505060405180910390f35b3480156103a357600080fd5b50610414600480360381019080803560ff169060200190929190803573ffffffffffffffffffffffffffffffffffffffff16906020019092919080359060200190820180359060200191909192939192939080359060200190929190803560ff169060200190929190505050611d3d565b005b34801561042257600080fd5b5061042b612356565b604051808215151515815260200191505060405180910390f35b6104bb600480360381019080803573ffffffffffffffffffffffffffffffffffffffff16906020019092919080359060200190820180359060200191909192939192939080359060200190929190803573ffffffffffffffffffffffffffffffffffffffff16906020019092919050505061236c565b005b3480156104c957600080fd5b5061055b600480360381019080803573ffffffffffffffffffffffffffffffffffffffff169060200190929190803590602001908201803590602001908080601f016020809104026020016040519081016040528093929190818152602001838380828437820191505050505050919291929080359060200190929190803560ff1690602001909291905050506125d1565b005b34801561056957600080fd5b506105c0600480360381019080803573ffffffffffffffffffffffffffffffffffffffff16906020019092919080359060200190820180359060200191909192939192939080359060200190929190505050612aa9565b005b60006105cc612356565b1515610640576040517f08c379a00000000000000000000000000000000000000000000000000000000081526004018080602001828103825260188152602001807f53657276696365206973206e6f7420617661696c61626c65000000000000000081525060200191505060405180910390fd5b600260009054906101000a900473ffffffffffffffffffffffffffffffffffffffff1673ffffffffffffffffffffffffffffffffffffffff1663010c5c97836040518263ffffffff167c0100000000000000000000000000000000000000000000000000000000028152600401808273ffffffffffffffffffffffffffffffffffffffff1673ffffffffffffffffffffffffffffffffffffffff168152602001915050602060405180830381600087803b1580156106fd57600080fd5b505af1158015610711573d6000803e3d6000fd5b505050506040513d602081101561072757600080fd5b81019080805190602001909291905050509050919050565b61074761343e565b670de0b6b3a764000034101515156107c7576040517f08c379a000000000000000000000000000000000000000000000000000000000815260040180806020018281038252601c8152602001807f526567697374726174696f6e206665652069732072657175697265640000000081525060200191505060405180910390fd5b6107d033613011565b9050604080519081016040528060011515815260200182815250600360003373ffffffffffffffffffffffffffffffffffffffff1673ffffffffffffffffffffffffffffffffffffffff16815260200190815260200160002060008201518160000160006101000a81548160ff021916908315150217905550602082015181600101906003610860929190613461565b5090505050565b61086f612356565b15156108e3576040517f08c379a00000000000000000000000000000000000000000000000000000000081526004018080602001828103825260188152602001807f53657276696365206973206e6f7420617661696c61626c65000000000000000081525060200191505060405180910390fd5b600260009054906101000a900473ffffffffffffffffffffffffffffffffffffffff1673ffffffffffffffffffffffffffffffffffffffff16633ad3d6c4826040518263ffffffff167c0100000000000000000000000000000000000000000000000000000000028152600401808273ffffffffffffffffffffffffffffffffffffffff1673ffffffffffffffffffffffffffffffffffffffff168152602001915050602060405180830381600087803b1580156109a057600080fd5b505af11580156109b4573d6000803e3d6000fd5b505050506040513d60208110156109ca57600080fd5b8101908080519060200190929190505050151515610a76576040517f08c379a00000000000000000000000000000000000000000000000000000000081526004018080602001828103825260218152602001807f54686973206169726c696e6520697320616c726561647920616374697661746581526020017f640000000000000000000000000000000000000000000000000000000000000081525060400191505060405180910390fd5b678ac7230489e800003410151515610b1c576040517f08c379a000000000000000000000000000000000000000000000000000000000815260040180806020018281038252602f8152602001807f506c65617365207375626d697420313020657468657220746f2061637469766181526020017f746520796f7572206169726c696e65000000000000000000000000000000000081525060400191505060405180910390fd5b600260009054906101000a900473ffffffffffffffffffffffffffffffffffffffff1673ffffffffffffffffffffffffffffffffffffffff166334ce669034836040518363ffffffff167c0100000000000000000000000000000000000000000000000000000000028152600401808273ffffffffffffffffffffffffffffffffffffffff1673ffffffffffffffffffffffffffffffffffffffff1681526020019150506000604051808303818588803b158015610bd957600080fd5b505af1158015610bed573d6000803e3d6000fd5b505050505050565b60606001604051908082528060200260200182016040528015610c275781602001602082028038833980820191505090505b50905033816000815181101515610c3a57fe5b9060200190602002019073ffffffffffffffffffffffffffffffffffffffff16908173ffffffffffffffffffffffffffffffffffffffff1681525050608060405190810160405280600115158152602001600a60ff1681526020018381526020013373ffffffffffffffffffffffffffffffffffffffff168152506001858560405180838380828437820191505092505050908152602001604051809103902060008201518160000160006101000a81548160ff02191690831515021790555060208201518160000160016101000a81548160ff021916908360ff1602179055506040820151816001015560608201518160020160006101000a81548173ffffffffffffffffffffffffffffffffffffffff021916908373ffffffffffffffffffffffffffffffffffffffff16021790555090505050505050565b6000610d7f612356565b1515610df3576040517f08c379a00000000000000000000000000000000000000000000000000000000081526004018080602001828103825260188152602001807f53657276696365206973206e6f7420617661696c61626c65000000000000000081525060200191505060405180910390fd5b600260009054906101000a900473ffffffffffffffffffffffffffffffffffffffff1673ffffffffffffffffffffffffffffffffffffffff16633ad3d6c4836040518263ffffffff167c0100000000000000000000000000000000000000000000000000000000028152600401808273ffffffffffffffffffffffffffffffffffffffff1673ffffffffffffffffffffffffffffffffffffffff168152602001915050602060405180830381600087803b158015610eb057600080fd5b505af1158015610ec4573d6000803e3d6000fd5b505050506040513d6020811015610eda57600080fd5b81019080805190602001909291905050509050919050565b610efa612356565b1515610f6e576040517f08c379a00000000000000000000000000000000000000000000000000000000081526004018080602001828103825260188152602001807f53657276696365206973206e6f7420617661696c61626c65000000000000000081525060200191505060405180910390fd5b600260009054906101000a900473ffffffffffffffffffffffffffffffffffffffff1673ffffffffffffffffffffffffffffffffffffffff16630c11dedd336040518263ffffffff167c0100000000000000000000000000000000000000000000000000000000028152600401808273ffffffffffffffffffffffffffffffffffffffff1673ffffffffffffffffffffffffffffffffffffffff168152602001915050600060405180830381600087803b15801561102b57600080fd5b505af115801561103f573d6000803e3d6000fd5b50505050565b61104d61343e565b600360003373ffffffffffffffffffffffffffffffffffffffff1673ffffffffffffffffffffffffffffffffffffffff16815260200190815260200160002060000160009054906101000a900460ff161515611111576040517f08c379a000000000000000000000000000000000000000000000000000000000815260040180806020018281038252601b8152602001807f4e6f74207265676973746572656420617320616e206f7261636c65000000000081525060200191505060405180910390fd5b600360003373ffffffffffffffffffffffffffffffffffffffff1673ffffffffffffffffffffffffffffffffffffffff1681526020019081526020016000206001016003806020026040519081016040528092919082600380156111b0576020028201916000905b82829054906101000a900460ff1660ff16815260200190600101906020826000010492830192600103820291508084116111795790505b5050505050905090565b670de0b6b3a764000081565b6111ce612356565b1515611242576040517f08c379a00000000000000000000000000000000000000000000000000000000081526004018080602001828103825260188152602001807f53657276696365206973206e6f7420617661696c61626c65000000000000000081525060200191505060405180910390fd5b600260009054906101000a900473ffffffffffffffffffffffffffffffffffffffff1673ffffffffffffffffffffffffffffffffffffffff16634efeb4d6868686868660966040518763ffffffff167c0100000000000000000000000000000000000000000000000000000000028152600401808773ffffffffffffffffffffffffffffffffffffffff1673ffffffffffffffffffffffffffffffffffffffff168152602001806020018581526020018473ffffffffffffffffffffffffffffffffffffffff1673ffffffffffffffffffffffffffffffffffffffff1681526020018360ff1660ff16815260200182810382528787828181526020019250808284378201915050975050505050505050600060405180830381600087803b15801561136c57600080fd5b505af1158015611380573d6000803e3d6000fd5b505050505050505050565b6000806060806000809054906101000a900460ff16151561143a576040517f08c379a00000000000000000000000000000000000000000000000000000000081526004018080602001828103825260298152602001807f41707020436f6e74726163742069732063757272656e746c79206e6f74206f7081526020017f65726174696f6e616c000000000000000000000000000000000000000000000081525060400191505060405180910390fd5b600260009054906101000a900473ffffffffffffffffffffffffffffffffffffffff1673ffffffffffffffffffffffffffffffffffffffff16633ad3d6c4336040518263ffffffff167c0100000000000000000000000000000000000000000000000000000000028152600401808273ffffffffffffffffffffffffffffffffffffffff1673ffffffffffffffffffffffffffffffffffffffff168152602001915050602060405180830381600087803b1580156114f757600080fd5b505af115801561150b573d6000803e3d6000fd5b505050506040513d602081101561152157600080fd5b810190808051906020019092919050505015156115cc576040517f08c379a00000000000000000000000000000000000000000000000000000000081526004018080602001828103825260288152602001807f4f6e6c7920416374697665206169726c696e6573206d6179207265676973746581526020017f72206f746865727300000000000000000000000000000000000000000000000081525060400191505060405180910390fd5b600260009054906101000a900473ffffffffffffffffffffffffffffffffffffffff1673ffffffffffffffffffffffffffffffffffffffff1663010c5c97866040518263ffffffff167c0100000000000000000000000000000000000000000000000000000000028152600401808273ffffffffffffffffffffffffffffffffffffffff1673ffffffffffffffffffffffffffffffffffffffff168152602001915050602060405180830381600087803b15801561168957600080fd5b505af115801561169d573d6000803e3d6000fd5b505050506040513d60208110156116b357600080fd5b810190808051906020019092919050505015151561175f576040517f08c379a00000000000000000000000000000000000000000000000000000000081526004018080602001828103825260228152602001807f54686973206169726c696e6520697320616c726561647920726567697374657281526020017f656400000000000000000000000000000000000000000000000000000000000081525060400191505060405180910390fd5b600260009054906101000a900473ffffffffffffffffffffffffffffffffffffffff1673ffffffffffffffffffffffffffffffffffffffff1663e5829e3786336040518363ffffffff167c0100000000000000000000000000000000000000000000000000000000028152600401808373ffffffffffffffffffffffffffffffffffffffff1673ffffffffffffffffffffffffffffffffffffffff1681526020018273ffffffffffffffffffffffffffffffffffffffff1673ffffffffffffffffffffffffffffffffffffffff16815260200192505050600060405180830381600087803b15801561185057600080fd5b505af1158015611864573d6000803e3d6000fd5b505050506040513d6000823e3d601f19601f82011682018060405250602081101561188e57600080fd5b8101908080516401000000008111156118a657600080fd5b828101905060208101848111156118bc57600080fd5b81518560208202830111640100000000821117156118d957600080fd5b505092919050505050600260009054906101000a900473ffffffffffffffffffffffffffffffffffffffff1673ffffffffffffffffffffffffffffffffffffffff1663c23bcf096040518163ffffffff167c0100000000000000000000000000000000000000000000000000000000028152600401600060405180830381600087803b15801561196857600080fd5b505af115801561197c573d6000803e3d6000fd5b505050506040513d6000823e3d601f19601f8201168201806040525060208110156119a657600080fd5b8101908080516401000000008111156119be57600080fd5b828101905060208101848111156119d457600080fd5b81518560208202830111640100000000821117156119f157600080fd5b50509291905050509150600260009054906101000a900473ffffffffffffffffffffffffffffffffffffffff1673ffffffffffffffffffffffffffffffffffffffff16636d47c815866040518263ffffffff167c0100000000000000000000000000000000000000000000000000000000028152600401808273ffffffffffffffffffffffffffffffffffffffff1673ffffffffffffffffffffffffffffffffffffffff168152602001915050600060405180830381600087803b158015611ab857600080fd5b505af1158015611acc573d6000803e3d6000fd5b505050506040513d6000823e3d601f19601f820116820180604052506020811015611af657600080fd5b810190808051640100000000811115611b0e57600080fd5b82810190506020810184811115611b2457600080fd5b8151856020820283011164010000000082111715611b4157600080fd5b5050929190505050905060048251101515611c555760028251811515611b6357fe5b048151101515611c4b57600260009054906101000a900473ffffffffffffffffffffffffffffffffffffffff1673ffffffffffffffffffffffffffffffffffffffff1663bdfd9877866040518263ffffffff167c0100000000000000000000000000000000000000000000000000000000028152600401808273ffffffffffffffffffffffffffffffffffffffff1673ffffffffffffffffffffffffffffffffffffffff168152602001915050600060405180830381600087803b158015611c2a57600080fd5b505af1158015611c3e573d6000803e3d6000fd5b5050505060019350611c50565b600093505b611d2f565b600260009054906101000a900473ffffffffffffffffffffffffffffffffffffffff1673ffffffffffffffffffffffffffffffffffffffff1663bdfd9877866040518263ffffffff167c0100000000000000000000000000000000000000000000000000000000028152600401808273ffffffffffffffffffffffffffffffffffffffff1673ffffffffffffffffffffffffffffffffffffffff168152602001915050600060405180830381600087803b158015611d1257600080fd5b505af1158015611d26573d6000803e3d6000fd5b50505050600193505b838151935093505050915091565b60008660ff16600360003373ffffffffffffffffffffffffffffffffffffffff1673ffffffffffffffffffffffffffffffffffffffff1681526020019081526020016000206001016000600381101515611d9357fe5b602091828204019190069054906101000a900460ff1660ff161480611e2257508660ff16600360003373ffffffffffffffffffffffffffffffffffffffff1673ffffffffffffffffffffffffffffffffffffffff1681526020019081526020016000206001016001600381101515611e0757fe5b602091828204019190069054906101000a900460ff1660ff16145b80611e9757508660ff16600360003373ffffffffffffffffffffffffffffffffffffffff1673ffffffffffffffffffffffffffffffffffffffff1681526020019081526020016000206001016002600381101515611e7c57fe5b602091828204019190069054906101000a900460ff1660ff16145b1515611f31576040517f08c379a00000000000000000000000000000000000000000000000000000000081526004018080602001828103825260238152602001807f496e64657820646f6573206e6f74206d61746368206f7261636c65207265717581526020017f657374000000000000000000000000000000000000000000000000000000000081525060400191505060405180910390fd5b8686868686604051602001808660ff1660ff167f01000000000000000000000000000000000000000000000000000000000000000281526001018573ffffffffffffffffffffffffffffffffffffffff1673ffffffffffffffffffffffffffffffffffffffff166c010000000000000000000000000281526014018484808284378201915050828152602001955050505050506040516020818303038152906040526040518082805190602001908083835b6020831015156120085780518252602082019150602081019050602083039250611fe3565b6001836020036101000a0380198251168184511680821785525050505050509050019150506040518091039020905060046000826000191660001916815260200190815260200160002060000160149054906101000a900460ff1615156120fd576040517f08c379a000000000000000000000000000000000000000000000000000000000815260040180806020018281038252602f8152602001807f466c69676874206f722074696d657374616d7020646f206e6f74206d6174636881526020017f206f7261636c652072657175657374000000000000000000000000000000000081525060400191505060405180910390fd5b60046000826000191660001916815260200190815260200160002060010160008360ff1660ff1681526020019081526020016000203390806001815401808255809150509060018203906000526020600020016000909192909190916101000a81548173ffffffffffffffffffffffffffffffffffffffff021916908373ffffffffffffffffffffffffffffffffffffffff160217905550507f43c853095c2752648493c88b4baac4d580d2594ffb00c6f1d4242d844514f7838686868686604051808673ffffffffffffffffffffffffffffffffffffffff1673ffffffffffffffffffffffffffffffffffffffff168152602001806020018481526020018360ff1660ff16815260200182810382528686828181526020019250808284378201915050965050505050505060405180910390a1600360046000836000191660001916815260200190815260200160002060010160008460ff1660ff1681526020019081526020016000208054905010151561234d577fe23f5229de535c091e3b7bec2665f5d698192d3b31393066e8987b7a05076b6c8686868686604051808673ffffffffffffffffffffffffffffffffffffffff1673ffffffffffffffffffffffffffffffffffffffff168152602001806020018481526020018360ff1660ff16815260200182810382528686828181526020019250808284378201915050965050505050505060405180910390a161234c8686868080601f01602080910402602001604051908101604052809392919081815260200183838082843782019150505050505085856125d1565b5b50505050505050565b60008060009054906101000a900460ff16905090565b612374612356565b15156123e8576040517f08c379a00000000000000000000000000000000000000000000000000000000081526004018080602001828103825260188152602001807f53657276696365206973206e6f7420617661696c61626c65000000000000000081525060200191505060405180910390fd5b670de0b6b3a7640000341115151561248e576040517f08c379a000000000000000000000000000000000000000000000000000000000815260040180806020018281038252602e8152602001807f416d6f756e742073686f756c64206265206c657373207468616e206f7220657181526020017f75616c20746f203120657468657200000000000000000000000000000000000081525060400191505060405180910390fd5b600260009054906101000a900473ffffffffffffffffffffffffffffffffffffffff1673ffffffffffffffffffffffffffffffffffffffff1663b11dca78348787878787346040518863ffffffff167c0100000000000000000000000000000000000000000000000000000000028152600401808773ffffffffffffffffffffffffffffffffffffffff1673ffffffffffffffffffffffffffffffffffffffff168152602001806020018581526020018473ffffffffffffffffffffffffffffffffffffffff1673ffffffffffffffffffffffffffffffffffffffff168152602001838152602001828103825287878281815260200192508082843782019150509750505050505050506000604051808303818588803b1580156125b157600080fd5b505af11580156125c5573d6000803e3d6000fd5b50505050505050505050565b6000606060008360ff166001876040518082805190602001908083835b60208310151561261357805182526020820191506020810190506020830392506125ee565b6001836020036101000a038019825116818451168082178552505050505050905001915050908152602001604051809103902060000160019054906101000a900460ff1660ff161415151561266757600080fd5b836001876040518082805190602001908083835b6020831015156126a0578051825260208201915060208101905060208303925061267b565b6001836020036101000a038019825116818451168082178552505050505050905001915050908152602001604051809103902060000160016101000a81548160ff021916908360ff1602179055507fde591e142b2024fe23010c937d9d3a116192dec8063f0c2bd2d65f7b0515f191868560405180806020018360ff1660ff168152602001828103825284818151815260200191508051906020019080838360005b8381101561275d578082015181840152602081019050612742565b50505050905090810190601f16801561278a5780820380516001836020036101000a031916815260200191505b50935050505060405180910390a1601460ff168460ff161415612aa0576127b28787876131b7565b9250600260009054906101000a900473ffffffffffffffffffffffffffffffffffffffff1673ffffffffffffffffffffffffffffffffffffffff1663a391bb5f846040518263ffffffff167c0100000000000000000000000000000000000000000000000000000000028152600401808260001916600019168152602001915050600060405180830381600087803b15801561284d57600080fd5b505af1158015612861573d6000803e3d6000fd5b505050506040513d6000823e3d601f19601f82011682018060405250602081101561288b57600080fd5b8101908080516401000000008111156128a357600080fd5b828101905060208101848111156128b957600080fd5b81518560208202830111640100000000821117156128d657600080fd5b50509291905050509150600090505b8151811015612a9f57600260009054906101000a900473ffffffffffffffffffffffffffffffffffffffff1673ffffffffffffffffffffffffffffffffffffffff16634efeb4d6888888868681518110151561293d57fe5b9060200190602002015160966040518663ffffffff167c0100000000000000000000000000000000000000000000000000000000028152600401808673ffffffffffffffffffffffffffffffffffffffff1673ffffffffffffffffffffffffffffffffffffffff168152602001806020018581526020018473ffffffffffffffffffffffffffffffffffffffff1673ffffffffffffffffffffffffffffffffffffffff1681526020018360ff1660ff168152602001828103825286818151815260200191508051906020019080838360005b83811015612a2a578082015181840152602081019050612a0f565b50505050905090810190601f168015612a575780820380516001836020036101000a031916815260200191505b509650505050505050600060405180830381600087803b158015612a7a57600080fd5b505af1158015612a8e573d6000803e3d6000fd5b5050505080806001019150506128e5565b5b50505050505050565b600080600260009054906101000a900473ffffffffffffffffffffffffffffffffffffffff1673ffffffffffffffffffffffffffffffffffffffff1663010c5c97876040518263ffffffff167c0100000000000000000000000000000000000000000000000000000000028152600401808273ffffffffffffffffffffffffffffffffffffffff1673ffffffffffffffffffffffffffffffffffffffff168152602001915050602060405180830381600087803b158015612b6957600080fd5b505af1158015612b7d573d6000803e3d6000fd5b505050506040513d6020811015612b9357600080fd5b81019080805190602001909291905050501515612c18576040517f08c379a000000000000000000000000000000000000000000000000000000000815260040180806020018281038252601e8152602001807f54686973206169726c696e65206973206e6f742072656769737465726564000081525060200191505060405180910390fd5b600260009054906101000a900473ffffffffffffffffffffffffffffffffffffffff1673ffffffffffffffffffffffffffffffffffffffff16633ad3d6c4876040518263ffffffff167c0100000000000000000000000000000000000000000000000000000000028152600401808273ffffffffffffffffffffffffffffffffffffffff1673ffffffffffffffffffffffffffffffffffffffff168152602001915050602060405180830381600087803b158015612cd557600080fd5b505af1158015612ce9573d6000803e3d6000fd5b505050506040513d6020811015612cff57600080fd5b81019080805190602001909291905050501515612daa576040517f08c379a00000000000000000000000000000000000000000000000000000000081526004018080602001828103825260288152602001807f4f6e6c7920416374697665206169726c696e6573206d6179207265676973746581526020017f72206f746865727300000000000000000000000000000000000000000000000081525060400191505060405180910390fd5b612db3336132dc565b91508186868686604051602001808660ff1660ff167f01000000000000000000000000000000000000000000000000000000000000000281526001018573ffffffffffffffffffffffffffffffffffffffff1673ffffffffffffffffffffffffffffffffffffffff166c010000000000000000000000000281526014018484808284378201915050828152602001955050505050506040516020818303038152906040526040518082805190602001908083835b602083101515612e8c5780518252602082019150602081019050602083039250612e67565b6001836020036101000a0380198251168184511680821785525050505050509050019150506040518091039020905060408051908101604052803373ffffffffffffffffffffffffffffffffffffffff1681526020016001151581525060046000836000191660001916815260200190815260200160002060008201518160000160006101000a81548173ffffffffffffffffffffffffffffffffffffffff021916908373ffffffffffffffffffffffffffffffffffffffff16021790555060208201518160000160146101000a81548160ff0219169083151502179055509050507f3ed01f2c3fc24c6b329d931e35b03e390d23497d22b3f90e15b600343e93df118287878787604051808660ff1660ff1681526020018573ffffffffffffffffffffffffffffffffffffffff1673ffffffffffffffffffffffffffffffffffffffff1681526020018060200183815260200182810382528585828181526020019250808284378201915050965050505050505060405180910390a1505050505050565b61301961343e565b61302161343e565b61302a836132dc565b81600060038110151561303957fe5b602002019060ff16908160ff168152505080600060038110151561305957fe5b602002015181600160038110151561306d57fe5b602002019060ff16908160ff16815250505b80600060038110151561308e57fe5b602002015160ff168160016003811015156130a557fe5b602002015160ff1614156130e1576130bc836132dc565b8160016003811015156130cb57fe5b602002019060ff16908160ff168152505061307f565b8060016003811015156130f057fe5b602002015181600260038110151561310457fe5b602002019060ff16908160ff16815250505b80600060038110151561312557fe5b602002015160ff1681600260038110151561313c57fe5b602002015160ff16148061317b575080600160038110151561315a57fe5b602002015160ff1681600260038110151561317157fe5b602002015160ff16145b156131ae57613189836132dc565b81600260038110151561319857fe5b602002019060ff16908160ff1681525050613116565b80915050919050565b6000838383604051602001808473ffffffffffffffffffffffffffffffffffffffff1673ffffffffffffffffffffffffffffffffffffffff166c0100000000000000000000000002815260140183805190602001908083835b6020831015156132355780518252602082019150602081019050602083039250613210565b6001836020036101000a03801982511681845116808217855250505050505090500182815260200193505050506040516020818303038152906040526040518082805190602001908083835b6020831015156132a65780518252602082019150602081019050602083039250613281565b6001836020036101000a038019825116818451168082178552505050505050905001915050604051809103902090509392505050565b6000806000600a91508160ff166002601481819054906101000a900460ff168092919060010191906101000a81548160ff021916908360ff16021790555060ff16430340856040516020018083600019166000191681526020018273ffffffffffffffffffffffffffffffffffffffff1673ffffffffffffffffffffffffffffffffffffffff166c01000000000000000000000000028152601401925050506040516020818303038152906040526040518082805190602001908083835b6020831015156133bf578051825260208201915060208101905060208303925061339a565b6001836020036101000a0380198251168184511680821785525050505050509050019150506040518091039020600190048115156133f957fe5b06905060fa600260149054906101000a900460ff1660ff161115613434576000600260146101000a81548160ff021916908360ff1602179055505b8092505050919050565b606060405190810160405280600390602082028038833980820191505090505090565b826003601f016020900481019282156134ea5791602002820160005b838211156134bb57835183826101000a81548160ff021916908360ff160217905550926020019260010160208160000104928301926001030261347d565b80156134e85782816101000a81549060ff02191690556001016020816000010492830192600103026134bb565b505b5090506134f791906134fb565b5090565b61352891905b8082111561352457600081816101000a81549060ff021916905550600101613501565b5090565b905600a165627a7a72305820b34ac83a7c67692a98da96848b5b0380e5d65431ee71a76a331a785b82333ff30029",
  "source": "pragma solidity ^0.4.24;\n\n// It's important to avoid vulnerabilities due to numeric overflow bugs\n// OpenZeppelin's SafeMath library, when used correctly, protects agains such bugs\n// More info: https://www.nccgroup.trust/us/about-us/newsroom-and-events/blog/2018/november/smart-contract-insecurity-bad-arithmetic/\n\nimport \"../node_modules/openzeppelin-solidity/contracts/math/SafeMath.sol\";\n\nimport \"./FlightSuretyData.sol\";\n\n/************************************************** */\n/* FlightSurety Smart Contract                      */\n/************************************************** */\ncontract FlightSuretyApp {\n    using SafeMath for uint256; // Allow SafeMath functions to be called for all uint256 types (similar to \"prototype\" in Javascript)\n\n    /********************************************************************************************/\n    /*                                       DATA VARIABLES                                     */\n    /********************************************************************************************/\n    bool private operational = true;                                    // Blocks all state changes throughout the contract if false\n\n    uint8 private constant CREDIT_RATE = 150;\n\n    // Flight status codees\n    uint8 private constant STATUS_CODE_UNKNOWN = 0;\n    uint8 private constant STATUS_CODE_ON_TIME = 10;\n    uint8 private constant STATUS_CODE_LATE_AIRLINE = 20;\n    uint8 private constant STATUS_CODE_LATE_WEATHER = 30;\n    uint8 private constant STATUS_CODE_LATE_TECHNICAL = 40;\n    uint8 private constant STATUS_CODE_LATE_OTHER = 50;\n\n    address private contractOwner;          // Account used to deploy contract\n\n    struct Flight {\n        bool isRegistered;\n        uint8 statusCode;\n        uint256 updatedTimestamp;        \n        address airline;\n    }\n    mapping(string => Flight) private flights;\n    //Seperate DATA & APP Contranct\n    FlightSuretyData flightSuretyData;\n\n    uint constant requiredVotesConstant = 4;\n\n    /********************************************************************************************/\n    /*                                       FUNCTION MODIFIERS                                 */\n    /********************************************************************************************/\n\n    // Modifiers help avoid duplication of code. They are typically used to validate something\n    // before a function is allowed to be executed.\n\n    /**\n    * @dev Modifier that requires the \"operational\" boolean variable to be \"true\"\n    *      This is used on all state changing functions to pause the contract in \n    *      the event there is an issue that needs to be fixed\n    */\n    modifier requireIsOperational() \n    {\n        require(operational, \"App Contract is currently not operational\");  \n        _;  // All modifiers require an \"_\" which indicates where the function body will be added\n    }\n\n    /**\n    * @dev Modifier that requires the \"ContractOwner\" account to be the function caller\n    */\n    modifier requireContractOwner()\n    {\n        require(msg.sender == contractOwner, \"Caller is not contract owner\");\n        _;\n    }\n\n    /********************************************************************************************/\n    /*                                       CONSTRUCTOR                                        */\n    /********************************************************************************************/\n\n    /**\n    * @dev Contract constructor\n    *\n    */\n    constructor\n                                (\n                                    address dataContract\n                                ) \n                                public \n    {\n        contractOwner = msg.sender;\n        flightSuretyData = FlightSuretyData(dataContract);\n\n    }\n\n    /********************************************************************************************/\n    /*                                       UTILITY FUNCTIONS                                  */\n    /********************************************************************************************/\n\n    function isOperational() \n                            public \n                            view \n                            returns(bool) \n    {\n        return operational;\n    }\n\n    /********************************************************************************************/\n    /*                                     SMART CONTRACT FUNCTIONS                             */\n    /********************************************************************************************/\n\n  \n   /**\n    * @dev Add an airline to the registration queue\n    *\n    */  \n     \n    function registerAirline\n                            (  \n                            address _newAirline\n                            )\n                            external\n                            requireIsOperational\n                            returns(bool success, uint256 votes)\n    {   \n        require(flightSuretyData.isAirlineActivated(msg.sender), \"Only Active airlines may register others\");\n        require(!flightSuretyData.isAirlineRegistered(_newAirline),\"This airline is already registered\");\n        // require(!flightSuretyData.isAirlineVoted(_newAirline, msg.sender), \"You have already voted for this airline\");\n        flightSuretyData.addAirlineVotes(_newAirline, msg.sender);\n        address[] memory registeredAirlines = flightSuretyData.getRegisteredAirlines();\n        address[] memory votedAirlines = flightSuretyData.getAirlineVotes(_newAirline);\n        if(registeredAirlines.length >= requiredVotesConstant) {\n            if(votedAirlines.length >= registeredAirlines.length / 2) {\n                flightSuretyData.registerAirline(_newAirline);\n                success = true;\n            } else {\n                success = false;\n            }\n        } else {\n            flightSuretyData.registerAirline(_newAirline);\n            success = true;\n        }\n        return (success, votedAirlines.length);\n   \n    }\n\n    /**\n    * @dev Check if the airline is activated\n    *\n    */\n    function isAirlineRegistered(address newAirline) external view returns(bool) {\n        require(isOperational(), \"Service is not available\");\n        return flightSuretyData.isAirlineRegistered(newAirline);\n    }\n   /**\n    * @dev Register a future flight for insuring.\n    *HARDCODED INTO DAPP FOR NOW\n    *\n    */  \n    function registerFlight\n                                (\n                                     \n                                string name,\n                                uint256 timestamp\n                                )\n                                external\n                                \n    {\n             address[] memory registerPassengersArray =  new address[](1);\n             registerPassengersArray[0] = msg.sender;\n            flights[name] = Flight({\n            isRegistered: true,\n            statusCode: STATUS_CODE_ON_TIME,\n            updatedTimestamp:timestamp,\n            airline: msg.sender\n                 \n            }); \n    }\n\n\n    /**\n    * @dev Activate an airline\n    *\n    */\n    function activateAirline(address _airlineAddress) external payable {\n        require(isOperational(), \"Service is not available\");\n        require(!flightSuretyData.isAirlineActivated(_airlineAddress), \"This airline is already activated\");\n        require(msg.value >= 10 ether, \"Please submit 10 ether to activate your airline\");\n        flightSuretyData.activateAirline.value(msg.value)(_airlineAddress);\n    }\n    \n    /**\n    * @dev Check if the airline is activated\n    *\n    */\n    function isAirlineActivated(address _airlineAddress) external view returns(bool) {\n        require(isOperational(), \"Service is not available\");\n        return flightSuretyData.isAirlineActivated(_airlineAddress);\n    }\n\n    /**\n     * @dev Buy insurance for a flight\n     *\n     */\n    function buyInsurance(address _airline, string _flight, uint256 _timestamp, address _passenger) external payable {\n        require(isOperational(), \"Service is not available\");\n        require(msg.value <= 1 ether, \"Amount should be less than or equal to 1 ether\");\n        flightSuretyData.buy.value(msg.value)(_airline, _flight, _timestamp, _passenger, msg.value);\n    }\n\n    \n   /**\n    * @dev Called after oracle has updated flight status\n    *\n    PLEASE CHECK THIS \n    */  \n    function processFlightStatus\n                                (\n                                    address airline,\n                                    string  flight,\n                                    uint256 timestamp,\n                                    uint8 statusCode\n                                )\n                                public\n    {\n        require(flights[flight].statusCode != statusCode);\n\n        flights[flight].statusCode = statusCode;\n        emit FlightStatusChange(flight, statusCode);\n        \n        if(statusCode == STATUS_CODE_LATE_AIRLINE)\n        {\n            bytes32 flightKey = getFlightKey(airline,flight,timestamp);\n            address[] memory passengersInvolved =  flightSuretyData.getPassengersEnsured(flightKey);\n            for(uint i=0; i < passengersInvolved.length; i++)\n            {\n                flightSuretyData.creditInsurees(airline,flight,timestamp,passengersInvolved[i],CREDIT_RATE);\n                \n            }\n        }   \n    }\n    /**\n     * @dev Claim the insurance amount for a flight\n     *\n     */\n    function claimInsuranceAmount(address airline, string flight, uint256 timestamp, address passenger) external {\n        require(isOperational(), \"Service is not available\");\n        flightSuretyData.creditInsurees(airline, flight, timestamp, passenger,CREDIT_RATE);\n    }\n\n    /**\n     * @dev Withdraw amount to their wallet\n     *\n     */\n    function withdrawAmount() external {\n        require(isOperational(), \"Service is not available\");\n        flightSuretyData.pay(msg.sender);\n    }\n\n    // Generate a request for oracles to fetch flight information\n    function fetchFlightStatus\n                        (\n                            address _airline,\n                            string _flight,\n                            uint256 _timestamp                            \n                        )\n                        external\n    {\n        require(flightSuretyData.isAirlineRegistered(_airline),\"This airline is not registered\");\n        require(flightSuretyData.isAirlineActivated(_airline), \"Only Active airlines may register others\");\n\n        uint8 index = getRandomIndex(msg.sender);\n\n        // Generate a unique key for storing the request\n        bytes32 key = keccak256(abi.encodePacked(index, _airline, _flight, _timestamp));\n        oracleResponses[key] = ResponseInfo({\n                                                requester: msg.sender,\n                                                isOpen: true\n                                            });\n\n        emit OracleRequest(index, _airline, _flight, _timestamp);\n    } \n\n\n// region ORACLE MANAGEMENT\n\n    // Incremented to add pseudo-randomness at various points\n    uint8 private nonce = 0;    \n\n    // Fee to be paid when registering oracle\n    uint256 public constant REGISTRATION_FEE = 1 ether;\n\n    // Number of oracles that must respond for valid status\n    uint256 private constant MIN_RESPONSES = 3;\n\n\n    struct Oracle {\n        bool isRegistered;\n        uint8[3] indexes;        \n    }\n\n    // Track all registered oracles\n    mapping(address => Oracle) private oracles;\n\n    // Model for responses from oracles\n    struct ResponseInfo {\n        address requester;                              // Account that requested status\n        bool isOpen;                                    // If open, oracle responses are accepted\n        mapping(uint8 => address[]) responses;          // Mapping key is the status code reported\n                                                        // This lets us group responses and identify\n                                                        // the response that majority of the oracles\n    }\n\n    // Track all oracle responses\n    // Key = hash(index, flight, timestamp)\n    mapping(bytes32 => ResponseInfo) private oracleResponses;\n\n    // Event fired each time an oracle submits a response\n    event FlightStatusInfo(address airline, string flight, uint256 timestamp, uint8 status);\n\n    event OracleReport(address airline, string flight, uint256 timestamp, uint8 status);\n\n    // Event fired when flight status request is submitted\n    // Oracles track this and if they have a matching index\n    // they fetch data and submit a response\n    event OracleRequest(uint8 index, address airline, string flight, uint256 timestamp);\n\n    event FlightStatusChange(string flightCode, uint8 status);\n\n    // Register an oracle with the contract\n    function registerOracle\n                            (\n                            )\n                            external\n                            payable\n    {\n        // Require registration fee\n        require(msg.value >= REGISTRATION_FEE, \"Registration fee is required\");\n\n        uint8[3] memory indexes = generateIndexes(msg.sender);\n\n        oracles[msg.sender] = Oracle({\n                                        isRegistered: true,\n                                        indexes: indexes\n                                    });\n    }\n\n    function getMyIndexes\n                            (\n                            )\n                            view\n                            external\n                            returns(uint8[3])\n    {\n        require(oracles[msg.sender].isRegistered, \"Not registered as an oracle\");\n\n        return oracles[msg.sender].indexes;\n    }\n\n\n\n\n    // Called by oracle when a response is available to an outstanding request\n    // For the response to be accepted, there must be a pending request that is open\n    // and matches one of the three Indexes randomly assigned to the oracle at the\n    // time of registration (i.e. uninvited oracles are not welcome)\n    function submitOracleResponse\n                        (\n                            uint8 index,\n                            address airline,\n                            string flight,\n                            uint256 timestamp,\n                            uint8 statusCode\n                        )\n                        external\n    {\n        require((oracles[msg.sender].indexes[0] == index) || (oracles[msg.sender].indexes[1] == index) || (oracles[msg.sender].indexes[2] == index), \"Index does not match oracle request\");\n\n\n        bytes32 key = keccak256(abi.encodePacked(index, airline, flight, timestamp)); \n        require(oracleResponses[key].isOpen, \"Flight or timestamp do not match oracle request\");\n\n        oracleResponses[key].responses[statusCode].push(msg.sender);\n\n        // Information isn't considered verified until at least MIN_RESPONSES\n        // oracles respond with the *** same *** information\n        emit OracleReport(airline, flight, timestamp, statusCode);\n        if (oracleResponses[key].responses[statusCode].length >= MIN_RESPONSES) {\n\n            emit FlightStatusInfo(airline, flight, timestamp, statusCode);\n\n            // Handle flight status as appropriate\n            processFlightStatus(airline, flight, timestamp, statusCode);\n        }\n    }\n\n\n    function getFlightKey\n                        (\n                            address airline,\n                            string flight,\n                            uint256 timestamp\n                        )\n                        pure\n                        internal\n                        returns(bytes32) \n    {\n        return keccak256(abi.encodePacked(airline, flight, timestamp));\n    }\n\n    // Returns array of three non-duplicating integers from 0-9\n    function generateIndexes\n                            (                       \n                                address account         \n                            )\n                            internal\n                            returns(uint8[3])\n    {\n        uint8[3] memory indexes;\n        indexes[0] = getRandomIndex(account);\n        \n        indexes[1] = indexes[0];\n        while(indexes[1] == indexes[0]) {\n            indexes[1] = getRandomIndex(account);\n        }\n\n        indexes[2] = indexes[1];\n        while((indexes[2] == indexes[0]) || (indexes[2] == indexes[1])) {\n            indexes[2] = getRandomIndex(account);\n        }\n\n        return indexes;\n    }\n\n    // Returns array of three non-duplicating integers from 0-9\n    function getRandomIndex\n                            (\n                                address account\n                            )\n                            internal\n                            returns (uint8)\n    {\n        uint8 maxValue = 10;\n\n        // Pseudo random number...the incrementing nonce adds variation\n        uint8 random = uint8(uint256(keccak256(abi.encodePacked(blockhash(block.number - nonce++), account))) % maxValue);\n\n        if (nonce > 250) {\n            nonce = 0;  // Can only fetch blockhashes for last 256 blocks so we adapt\n        }\n\n        return random;\n    }\n\n// endregion\n\n}   \n",
  "sourcePath": "/Users/bhavyesharma/Desktop/UDACITYND/FlightSurety/contracts/FlightSuretyApp.sol",
  "compiler": {
    "name": "solc",
    "version": "0.4.24+commit.e67f0147.Emscripten.clang"
  },
  "schemaVersion": "2.0.1",
  "updatedAt": "2019-06-04T00:01:06.294Z"
}