{
  "contractName": "FlightSuretyData",
  "abi": [
    {
      "inputs": [],
      "payable": false,
      "stateMutability": "nonpayable",
      "type": "constructor"
    },
    {
      "payable": true,
      "stateMutability": "payable",
      "type": "fallback"
    },
    {
      "anonymous": false,
      "inputs": [
        {
          "indexed": false,
          "name": "airlineAddress",
          "type": "address"
        }
      ],
      "name": "airlineRegistered",
      "type": "event"
    },
    {
      "anonymous": false,
      "inputs": [
        {
          "indexed": false,
          "name": "airlineAddress",
          "type": "address"
        }
      ],
      "name": "airlineFunded",
      "type": "event"
    },
    {
      "anonymous": false,
      "inputs": [
        {
          "indexed": false,
          "name": "airline",
          "type": "address"
        },
        {
          "indexed": false,
          "name": "flight",
          "type": "string"
        },
        {
          "indexed": false,
          "name": "timestamp",
          "type": "uint256"
        },
        {
          "indexed": false,
          "name": "passenger",
          "type": "address"
        },
        {
          "indexed": false,
          "name": "amount",
          "type": "uint256"
        },
        {
          "indexed": false,
          "name": "id",
          "type": "bytes32"
        }
      ],
      "name": "insurancePurchased",
      "type": "event"
    },
    {
      "anonymous": false,
      "inputs": [
        {
          "indexed": false,
          "name": "airline",
          "type": "address"
        },
        {
          "indexed": false,
          "name": "flight",
          "type": "string"
        },
        {
          "indexed": false,
          "name": "timestamp",
          "type": "uint256"
        },
        {
          "indexed": false,
          "name": "passenger",
          "type": "address"
        },
        {
          "indexed": false,
          "name": "amount",
          "type": "uint256"
        },
        {
          "indexed": false,
          "name": "id",
          "type": "bytes32"
        }
      ],
      "name": "insuranceClaimed",
      "type": "event"
    },
    {
      "anonymous": false,
      "inputs": [
        {
          "indexed": false,
          "name": "senderAddress",
          "type": "address"
        },
        {
          "indexed": false,
          "name": "amount",
          "type": "uint256"
        }
      ],
      "name": "amountWithdrawn",
      "type": "event"
    },
    {
      "constant": true,
      "inputs": [],
      "name": "isOperational",
      "outputs": [
        {
          "name": "",
          "type": "bool"
        }
      ],
      "payable": false,
      "stateMutability": "view",
      "type": "function"
    },
    {
      "constant": false,
      "inputs": [
        {
          "name": "mode",
          "type": "bool"
        }
      ],
      "name": "setOperatingStatus",
      "outputs": [],
      "payable": false,
      "stateMutability": "nonpayable",
      "type": "function"
    },
    {
      "constant": false,
      "inputs": [
        {
          "name": "_airlineAddress",
          "type": "address"
        }
      ],
      "name": "registerAirline",
      "outputs": [],
      "payable": false,
      "stateMutability": "nonpayable",
      "type": "function"
    },
    {
      "constant": false,
      "inputs": [
        {
          "name": "_newAirline",
          "type": "address"
        },
        {
          "name": "_senderAddress",
          "type": "address"
        }
      ],
      "name": "addAirlineVotes",
      "outputs": [
        {
          "name": "",
          "type": "address[]"
        }
      ],
      "payable": false,
      "stateMutability": "nonpayable",
      "type": "function"
    },
    {
      "constant": true,
      "inputs": [
        {
          "name": "_airlineAddress",
          "type": "address"
        }
      ],
      "name": "getAirlineVotes",
      "outputs": [
        {
          "name": "",
          "type": "address[]"
        }
      ],
      "payable": false,
      "stateMutability": "view",
      "type": "function"
    },
    {
      "constant": true,
      "inputs": [
        {
          "name": "_newAirline",
          "type": "address"
        },
        {
          "name": "_senderAddress",
          "type": "address"
        }
      ],
      "name": "isAirlineVoted",
      "outputs": [
        {
          "name": "",
          "type": "bool"
        }
      ],
      "payable": false,
      "stateMutability": "view",
      "type": "function"
    },
    {
      "constant": true,
      "inputs": [
        {
          "name": "_newAirline",
          "type": "address"
        }
      ],
      "name": "isAirlineRegistered",
      "outputs": [
        {
          "name": "",
          "type": "bool"
        }
      ],
      "payable": false,
      "stateMutability": "view",
      "type": "function"
    },
    {
      "constant": true,
      "inputs": [],
      "name": "getRegisteredAirlines",
      "outputs": [
        {
          "name": "",
          "type": "address[]"
        }
      ],
      "payable": false,
      "stateMutability": "view",
      "type": "function"
    },
    {
      "constant": false,
      "inputs": [
        {
          "name": "_airlineAddress",
          "type": "address"
        }
      ],
      "name": "activateAirline",
      "outputs": [],
      "payable": true,
      "stateMutability": "payable",
      "type": "function"
    },
    {
      "constant": false,
      "inputs": [
        {
          "name": "_airline",
          "type": "address"
        },
        {
          "name": "_flight",
          "type": "string"
        },
        {
          "name": "_timestamp",
          "type": "uint256"
        },
        {
          "name": "_passenger",
          "type": "address"
        },
        {
          "name": "_insuranceAmount",
          "type": "uint256"
        }
      ],
      "name": "buy",
      "outputs": [],
      "payable": true,
      "stateMutability": "payable",
      "type": "function"
    },
    {
      "constant": false,
      "inputs": [
        {
          "name": "_airline",
          "type": "address"
        },
        {
          "name": "_flight",
          "type": "string"
        },
        {
          "name": "_timestamp",
          "type": "uint256"
        },
        {
          "name": "_passenger",
          "type": "address"
        },
        {
          "name": "creditRate",
          "type": "uint8"
        }
      ],
      "name": "creditInsurees",
      "outputs": [],
      "payable": false,
      "stateMutability": "nonpayable",
      "type": "function"
    },
    {
      "constant": false,
      "inputs": [
        {
          "name": "_insureeAddress",
          "type": "address"
        }
      ],
      "name": "pay",
      "outputs": [],
      "payable": true,
      "stateMutability": "payable",
      "type": "function"
    },
    {
      "constant": false,
      "inputs": [
        {
          "name": "_address",
          "type": "address"
        }
      ],
      "name": "fund",
      "outputs": [],
      "payable": true,
      "stateMutability": "payable",
      "type": "function"
    },
    {
      "constant": true,
      "inputs": [
        {
          "name": "airlineAddress",
          "type": "address"
        }
      ],
      "name": "isAirlineActivated",
      "outputs": [
        {
          "name": "",
          "type": "bool"
        }
      ],
      "payable": false,
      "stateMutability": "view",
      "type": "function"
    },
    {
      "constant": true,
      "inputs": [
        {
          "name": "key",
          "type": "bytes32"
        }
      ],
      "name": "getPassengersEnsured",
      "outputs": [
        {
          "name": "",
          "type": "address[]"
        }
      ],
      "payable": false,
      "stateMutability": "view",
      "type": "function"
    }
  ],
  "bytecode": "0x60806040526001600060146101000a81548160ff02191690831515021790555034801561002b57600080fd5b50336000806101000a81548173ffffffffffffffffffffffffffffffffffffffff021916908373ffffffffffffffffffffffffffffffffffffffff16021790555060023390806001815401808255809150509060018203906000526020600020016000909192909190916101000a81548173ffffffffffffffffffffffffffffffffffffffff021916908373ffffffffffffffffffffffffffffffffffffffff160217905550506122de806100e16000396000f3006080604052600436106100db576000357c0100000000000000000000000000000000000000000000000000000000900463ffffffff168063010c5c97146100e65780630c11dedd14610141578063110466ed1461017757806323024408146101a657806334ce6690146101dc5780633ad3d6c4146102125780634efeb4d61461026d5780636d47c815146102ff578063a391bb5f14610397578063b11dca781461041d578063bdfd98771461049f578063c23bcf09146104e2578063cd905dff1461054e578063e3b7d37f1461057d578063e5829e37146105f8575b6100e4336106b0565b005b3480156100f257600080fd5b50610127600480360381019080803573ffffffffffffffffffffffffffffffffffffffff169060200190929190505050610748565b604051808215151515815260200191505060405180910390f35b610175600480360381019080803573ffffffffffffffffffffffffffffffffffffffff169060200190929190505050610895565b005b34801561018357600080fd5b506101a4600480360381019080803515159060200190929190505050610ab0565b005b6101da600480360381019080803573ffffffffffffffffffffffffffffffffffffffff1690602001909291905050506106b0565b005b610210600480360381019080803573ffffffffffffffffffffffffffffffffffffffff169060200190929190505050610c42565b005b34801561021e57600080fd5b50610253600480360381019080803573ffffffffffffffffffffffffffffffffffffffff169060200190929190505050610e19565b604051808215151515815260200191505060405180910390f35b34801561027957600080fd5b506102fd600480360381019080803573ffffffffffffffffffffffffffffffffffffffff16906020019092919080359060200190820180359060200191909192939192939080359060200190929190803573ffffffffffffffffffffffffffffffffffffffff169060200190929190803560ff169060200190929190505050610f18565b005b34801561030b57600080fd5b50610340600480360381019080803573ffffffffffffffffffffffffffffffffffffffff16906020019092919050505061154a565b6040518080602001828103825283818151815260200191508051906020019060200280838360005b83811015610383578082015181840152602081019050610368565b505050509050019250505060405180910390f35b3480156103a357600080fd5b506103c660048036038101908080356000191690602001909291905050506116c1565b6040518080602001828103825283818151815260200191508051906020019060200280838360005b838110156104095780820151818401526020810190506103ee565b505050509050019250505060405180910390f35b61049d600480360381019080803573ffffffffffffffffffffffffffffffffffffffff16906020019092919080359060200190820180359060200191909192939192939080359060200190929190803573ffffffffffffffffffffffffffffffffffffffff1690602001909291908035906020019092919050505061176a565b005b3480156104ab57600080fd5b506104e0600480360381019080803573ffffffffffffffffffffffffffffffffffffffff169060200190929190505050611b6e565b005b3480156104ee57600080fd5b506104f7611c92565b6040518080602001828103825283818151815260200191508051906020019060200280838360005b8381101561053a57808201518184015260208101905061051f565b505050509050019250505060405180910390f35b34801561055a57600080fd5b50610563611dca565b604051808215151515815260200191505060405180910390f35b34801561058957600080fd5b506105de600480360381019080803573ffffffffffffffffffffffffffffffffffffffff169060200190929190803573ffffffffffffffffffffffffffffffffffffffff169060200190929190505050611de0565b604051808215151515815260200191505060405180910390f35b34801561060457600080fd5b50610659600480360381019080803573ffffffffffffffffffffffffffffffffffffffff169060200190929190803573ffffffffffffffffffffffffffffffffffffffff169060200190929190505050611fb5565b6040518080602001828103825283818151815260200191508051906020019060200280838360005b8381101561069c578082015181840152602081019050610681565b505050509050019250505060405180910390f35b61070234600160008473ffffffffffffffffffffffffffffffffffffffff1673ffffffffffffffffffffffffffffffffffffffff1681526020019081526020016000205461210a90919063ffffffff16565b600160008373ffffffffffffffffffffffffffffffffffffffff1673ffffffffffffffffffffffffffffffffffffffff1681526020019081526020016000208190555050565b60008060008060149054906101000a900460ff1615156107f6576040517f08c379a00000000000000000000000000000000000000000000000000000000081526004018080602001828103825260258152602001807f436f6e74726163742069732063757272656e746c79206e6f74206f706572617481526020017f696f6e616c00000000000000000000000000000000000000000000000000000081525060400191505060405180910390fd5b60009150600090505b60028054905081101561088b578373ffffffffffffffffffffffffffffffffffffffff1660028281548110151561083257fe5b9060005260206000200160009054906101000a900473ffffffffffffffffffffffffffffffffffffffff1673ffffffffffffffffffffffffffffffffffffffff16141561087e57600191505b80806001019150506107ff565b8192505050919050565b600080600160008473ffffffffffffffffffffffffffffffffffffffff1673ffffffffffffffffffffffffffffffffffffffff16815260200190815260200160002054111515610973576040517f08c379a000000000000000000000000000000000000000000000000000000000815260040180806020018281038252602c8152602001807f5468657265206973206e6f2062616c616e636520617661696c61626c6520696e81526020017f20796f75722077616c6c6574000000000000000000000000000000000000000081525060400191505060405180910390fd5b600160008373ffffffffffffffffffffffffffffffffffffffff1673ffffffffffffffffffffffffffffffffffffffff1681526020019081526020016000205490506000600160008473ffffffffffffffffffffffffffffffffffffffff1673ffffffffffffffffffffffffffffffffffffffff168152602001908152602001600020819055508173ffffffffffffffffffffffffffffffffffffffff166108fc829081150290604051600060405180830381858888f19350505050158015610a40573d6000803e3d6000fd5b507fb2f5d4c0f2ba5229a12fd1382c4e4a7de3abb1a36c6e9f17e123d90a555b61b38282604051808373ffffffffffffffffffffffffffffffffffffffff1673ffffffffffffffffffffffffffffffffffffffff1681526020018281526020019250505060405180910390a15050565b6000809054906101000a900473ffffffffffffffffffffffffffffffffffffffff1673ffffffffffffffffffffffffffffffffffffffff163373ffffffffffffffffffffffffffffffffffffffff16141515610b74576040517f08c379a000000000000000000000000000000000000000000000000000000000815260040180806020018281038252601c8152602001807f43616c6c6572206973206e6f7420636f6e7472616374206f776e65720000000081525060200191505060405180910390fd5b600060149054906101000a900460ff16151581151514151515610c25576040517f08c379a000000000000000000000000000000000000000000000000000000000815260040180806020018281038252602e8152602001807f4e6577206d6f64652073686f756c6420626520646966666572656e742066726f81526020017f6d2063757272656e74206d6f646500000000000000000000000000000000000081525060400191505060405180910390fd5b80600060146101000a81548160ff02191690831515021790555050565b600060149054906101000a900460ff161515610cec576040517f08c379a00000000000000000000000000000000000000000000000000000000081526004018080602001828103825260258152602001807f436f6e74726163742069732063757272656e746c79206e6f74206f706572617481526020017f696f6e616c00000000000000000000000000000000000000000000000000000081525060400191505060405180910390fd5b6001600460008373ffffffffffffffffffffffffffffffffffffffff1673ffffffffffffffffffffffffffffffffffffffff16815260200190815260200160002060006101000a81548160ff02191690831515021790555060038190806001815401808255809150509060018203906000526020600020016000909192909190916101000a81548173ffffffffffffffffffffffffffffffffffffffff021916908373ffffffffffffffffffffffffffffffffffffffff16021790555050610db3816106b0565b7f6a271d1fc1ff00cf80d9e67d144d2a4ea770a812df72ceed4f0083f76c56876981604051808273ffffffffffffffffffffffffffffffffffffffff1673ffffffffffffffffffffffffffffffffffffffff16815260200191505060405180910390a150565b60008060149054906101000a900460ff161515610ec4576040517f08c379a00000000000000000000000000000000000000000000000000000000081526004018080602001828103825260258152602001807f436f6e74726163742069732063757272656e746c79206e6f74206f706572617481526020017f696f6e616c00000000000000000000000000000000000000000000000000000081525060400191505060405180910390fd5b600460008373ffffffffffffffffffffffffffffffffffffffff1673ffffffffffffffffffffffffffffffffffffffff16815260200190815260200160002060009054906101000a900460ff169050919050565b600080600080600060149054906101000a900460ff161515610fc8576040517f08c379a00000000000000000000000000000000000000000000000000000000081526004018080602001828103825260258152602001807f436f6e74726163742069732063757272656e746c79206e6f74206f706572617481526020017f696f6e616c00000000000000000000000000000000000000000000000000000081525060400191505060405180910390fd5b6110058a8a8a8080601f01602080910402602001604051908101604052809392919081815260200183838082843782019150505050505089612126565b935083866040516020018083600019166000191681526020018273ffffffffffffffffffffffffffffffffffffffff1673ffffffffffffffffffffffffffffffffffffffff166c01000000000000000000000000028152601401925050506040516020818303038152906040526040518082805190602001908083835b6020831015156110a75780518252602082019150602081019050602083039250611082565b6001836020036101000a0380198251168184511680821785525050505050509050019150506040518091039020925082600019166006600085600019166000191681526020019081526020016000206000015460001916141515611173576040517f08c379a00000000000000000000000000000000000000000000000000000000081526004018080602001828103825260188152602001807f4e6f207375636820696e737572616e636520457869737473000000000000000081525060200191505060405180910390fd5b6000151560066000856000191660001916815260200190815260200160002060010160009054906101000a900460ff16151514151561121a576040517f08c379a000000000000000000000000000000000000000000000000000000000815260040180806020018281038252601b8152602001807f416c726561647920636c61696d6564207468697320616d6f756e74000000000081525060200191505060405180910390fd5b600160008b73ffffffffffffffffffffffffffffffffffffffff1673ffffffffffffffffffffffffffffffffffffffff1681526020019081526020016000205491506112a3600a6112958760ff166006600088600019166000191681526020019081526020016000206002015461224b90919063ffffffff16565b61228390919063ffffffff16565b9050808210151515611343576040517f08c379a00000000000000000000000000000000000000000000000000000000081526004018080602001828103825260368152602001807f4169726c696e6520446f65736e2774206861766520656e6f7567682066756e6481526020017f732e20506c6561736520636865636b206c617465722e0000000000000000000081525060400191505060405180910390fd5b600160066000856000191660001916815260200190815260200160002060010160006101000a81548160ff02191690831515021790555061138d818361229990919063ffffffff16565b600160008c73ffffffffffffffffffffffffffffffffffffffff1673ffffffffffffffffffffffffffffffffffffffff1681526020019081526020016000208190555061142281600160008973ffffffffffffffffffffffffffffffffffffffff1673ffffffffffffffffffffffffffffffffffffffff1681526020019081526020016000205461210a90919063ffffffff16565b600160008873ffffffffffffffffffffffffffffffffffffffff1673ffffffffffffffffffffffffffffffffffffffff168152602001908152602001600020819055507fb549f5eca5833829c533e1ed3dadfac5c9da5acc0ad4991e3488dd091576f87f8a8a8a8a8a8689604051808873ffffffffffffffffffffffffffffffffffffffff1673ffffffffffffffffffffffffffffffffffffffff168152602001806020018681526020018573ffffffffffffffffffffffffffffffffffffffff1673ffffffffffffffffffffffffffffffffffffffff1681526020018481526020018360001916600019168152602001828103825288888281815260200192508082843782019150509850505050505050505060405180910390a150505050505050505050565b6060600060149054906101000a900460ff1615156115f6576040517f08c379a00000000000000000000000000000000000000000000000000000000081526004018080602001828103825260258152602001807f436f6e74726163742069732063757272656e746c79206e6f74206f706572617481526020017f696f6e616c00000000000000000000000000000000000000000000000000000081525060400191505060405180910390fd5b600560008373ffffffffffffffffffffffffffffffffffffffff1673ffffffffffffffffffffffffffffffffffffffff1681526020019081526020016000208054806020026020016040519081016040528092919081815260200182805480156116b557602002820191906000526020600020905b8160009054906101000a900473ffffffffffffffffffffffffffffffffffffffff1673ffffffffffffffffffffffffffffffffffffffff168152602001906001019080831161166b575b50505050509050919050565b606060076000836000191660001916815260200190815260200160002080548060200260200160405190810160405280929190818152602001828054801561175e57602002820191906000526020600020905b8160009054906101000a900473ffffffffffffffffffffffffffffffffffffffff1673ffffffffffffffffffffffffffffffffffffffff1681526020019060010190808311611714575b50505050509050919050565b600080600060149054906101000a900460ff161515611817576040517f08c379a00000000000000000000000000000000000000000000000000000000081526004018080602001828103825260258152602001807f436f6e74726163742069732063757272656e746c79206e6f74206f706572617481526020017f696f6e616c00000000000000000000000000000000000000000000000000000081525060400191505060405180910390fd5b6118548888888080601f01602080910402602001604051908101604052809392919081815260200183838082843782019150505050505087612126565b915081846040516020018083600019166000191681526020018273ffffffffffffffffffffffffffffffffffffffff1673ffffffffffffffffffffffffffffffffffffffff166c01000000000000000000000000028152601401925050506040516020818303038152906040526040518082805190602001908083835b6020831015156118f657805182526020820191506020810190506020830392506118d1565b6001836020036101000a03801982511681845116808217855250505050505090500191505060405180910390209050608060405190810160405280826000191681526020016000151581526020018573ffffffffffffffffffffffffffffffffffffffff168152602001848152506006600083600019166000191681526020019081526020016000206000820151816000019060001916905560208201518160010160006101000a81548160ff02191690831515021790555060408201518160010160016101000a81548173ffffffffffffffffffffffffffffffffffffffff021916908373ffffffffffffffffffffffffffffffffffffffff160217905550606082015181600201559050506007600083600019166000191681526020019081526020016000208490806001815401808255809150509060018203906000526020600020016000909192909190916101000a81548173ffffffffffffffffffffffffffffffffffffffff021916908373ffffffffffffffffffffffffffffffffffffffff16021790555050611a8b886106b0565b7f6eef00b2fdd47cbf90282a97c966085d5da41a946c7a62a36533a24aca9ecc4a88888888888887604051808873ffffffffffffffffffffffffffffffffffffffff1673ffffffffffffffffffffffffffffffffffffffff168152602001806020018681526020018573ffffffffffffffffffffffffffffffffffffffff1673ffffffffffffffffffffffffffffffffffffffff1681526020018481526020018360001916600019168152602001828103825288888281815260200192508082843782019150509850505050505050505060405180910390a15050505050505050565b60028190806001815401808255809150509060018203906000526020600020016000909192909190916101000a81548173ffffffffffffffffffffffffffffffffffffffff021916908373ffffffffffffffffffffffffffffffffffffffff160217905550506000600460008373ffffffffffffffffffffffffffffffffffffffff1673ffffffffffffffffffffffffffffffffffffffff16815260200190815260200160002060006101000a81548160ff0219169083151502179055507f2ef49f308764ebe6c1149ac59bf417810aa1d676e95227cc4638855c9eaf6c8881604051808273ffffffffffffffffffffffffffffffffffffffff1673ffffffffffffffffffffffffffffffffffffffff16815260200191505060405180910390a150565b6060600060149054906101000a900460ff161515611d3e576040517f08c379a00000000000000000000000000000000000000000000000000000000081526004018080602001828103825260258152602001807f436f6e74726163742069732063757272656e746c79206e6f74206f706572617481526020017f696f6e616c00000000000000000000000000000000000000000000000000000081525060400191505060405180910390fd5b6002805480602002602001604051908101604052809291908181526020018280548015611dc057602002820191906000526020600020905b8160009054906101000a900473ffffffffffffffffffffffffffffffffffffffff1673ffffffffffffffffffffffffffffffffffffffff1681526020019060010190808311611d76575b5050505050905090565b60008060149054906101000a900460ff16905090565b60008060008060149054906101000a900460ff161515611e8e576040517f08c379a00000000000000000000000000000000000000000000000000000000081526004018080602001828103825260258152602001807f436f6e74726163742069732063757272656e746c79206e6f74206f706572617481526020017f696f6e616c00000000000000000000000000000000000000000000000000000081525060400191505060405180910390fd5b60009150600090505b600560008673ffffffffffffffffffffffffffffffffffffffff1673ffffffffffffffffffffffffffffffffffffffff16815260200190815260200160002080549050811015611faa578373ffffffffffffffffffffffffffffffffffffffff16600560008773ffffffffffffffffffffffffffffffffffffffff1673ffffffffffffffffffffffffffffffffffffffff16815260200190815260200160002082815481101515611f4457fe5b9060005260206000200160009054906101000a900473ffffffffffffffffffffffffffffffffffffffff1673ffffffffffffffffffffffffffffffffffffffff161415611f9057600191505b611fa460018261210a90919063ffffffff16565b50611e97565b819250505092915050565b6060600060149054906101000a900460ff161515612061576040517f08c379a00000000000000000000000000000000000000000000000000000000081526004018080602001828103825260258152602001807f436f6e74726163742069732063757272656e746c79206e6f74206f706572617481526020017f696f6e616c00000000000000000000000000000000000000000000000000000081525060400191505060405180910390fd5b600560008473ffffffffffffffffffffffffffffffffffffffff1673ffffffffffffffffffffffffffffffffffffffff1681526020019081526020016000208290806001815401808255809150509060018203906000526020600020016000909192909190916101000a81548173ffffffffffffffffffffffffffffffffffffffff021916908373ffffffffffffffffffffffffffffffffffffffff1602179055505092915050565b6000818301905082811015151561211d57fe5b80905092915050565b6000838383604051602001808473ffffffffffffffffffffffffffffffffffffffff1673ffffffffffffffffffffffffffffffffffffffff166c0100000000000000000000000002815260140183805190602001908083835b6020831015156121a4578051825260208201915060208101905060208303925061217f565b6001836020036101000a03801982511681845116808217855250505050505090500182815260200193505050506040516020818303038152906040526040518082805190602001908083835b60208310151561221557805182526020820191506020810190506020830392506121f0565b6001836020036101000a038019825116818451168082178552505050505050905001915050604051809103902090509392505050565b60008083141561225e576000905061227d565b818302905081838281151561226f57fe5b0414151561227957fe5b8090505b92915050565b6000818381151561229057fe5b04905092915050565b60008282111515156122a757fe5b8183039050929150505600a165627a7a7230582079203a40f7858d985e5c966ccbe4b10ad446955434ac085129fa9b74a217f20e0029",
  "source": "pragma solidity ^0.4.24;\n\nimport \"../node_modules/openzeppelin-solidity/contracts/math/SafeMath.sol\";\n\ncontract FlightSuretyData {\n    using SafeMath for uint256;\n\n    /********************************************************************************************/\n    /*                                       DATA VARIABLES                                     */\n    /********************************************************************************************/\n\n    address private contractOwner;                                      // Account used to deploy contract\n    bool private operational = true;                                    // Blocks all state changes throughout the contract if false\n\n    mapping(address => uint256) private walletBalance;\n    address[] private airlines;\n    address[] private activeAirlines;   //Only active after 10 ether funded\n    mapping (address=>bool) isActiveAirline;\n    mapping (address=>address[]) airlineVotes;  //Need minimum 4 votes\n\n    //Insurance Data variables\n    struct Insurance {\n        bytes32 id;   //Unique Identifier for Insurance\n        bool isPaid; \n        address owner;\n        uint256 amount;  //Using SafeMath\n    } \n    mapping (bytes32=>Insurance) insuranceDetails;\n    mapping (bytes32=>address[]) passengersEnsured;\n\n    \n    /********************************************************************************************/\n    /*                                       EVENT DEFINITIONS                                  */\n    /********************************************************************************************/\n\n    event airlineRegistered(address airlineAddress);\n    event airlineFunded(address airlineAddress);\n    event insurancePurchased(address airline,string flight, uint256 timestamp, address passenger, uint256 amount, bytes32 id);    //Should I send ID in event?\n    event insuranceClaimed(address airline, string flight, uint256 timestamp, address passenger, uint256 amount, bytes32 id);\n    event amountWithdrawn(address senderAddress, uint amount);\n\n\n    /**\n    * @dev Constructor\n    *      The deploying account becomes contractOwner\n    */\n    constructor \n                                (\n                                ) \n                                public \n    {\n        contractOwner = msg.sender;\n        airlines.push(msg.sender);\n\n    }\n\n    /********************************************************************************************/\n    /*                                       FUNCTION MODIFIERS                                 */\n    /********************************************************************************************/\n\n    // Modifiers help avoid duplication of code. They are typically used to validate something\n    // before a function is allowed to be executed.\n\n    /**\n    * @dev Modifier that requires the \"operational\" boolean variable to be \"true\"\n    *      This is used on all state changing functions to pause the contract in \n    *      the event there is an issue that needs to be fixed\n    */\n    modifier requireIsOperational() \n    {\n        require(operational, \"Contract is currently not operational\");\n        _;  // All modifiers require an \"_\" which indicates where the function body will be added\n    }\n\n    /**\n    * @dev Modifier that requires the \"ContractOwner\" account to be the function caller\n    */\n    modifier requireContractOwner()\n    {\n        require(msg.sender == contractOwner, \"Caller is not contract owner\");\n        _;\n    }\n\n    /********************************************************************************************/\n    /*                                       UTILITY FUNCTIONS                                  */\n    /********************************************************************************************/\n\n    /**\n    * @dev Get operating status of contract\n    *\n    * @return A bool that is the current operating status\n    */      \n    function isOperational() \n                            public \n                            view \n                            returns(bool) \n    {\n        return operational;\n    }\n\n\n    /**\n    * @dev Sets contract operations on/off\n    *\n    * When operational mode is disabled, all write transactions except for this one will fail\n    */    \n    function setOperatingStatus\n                            (\n                                bool mode\n                            ) \n                            external\n                            requireContractOwner \n    {\n        require(mode != operational, \"New mode should be different from current mode\");\n        operational = mode;\n    }\n\n    /********************************************************************************************/\n    /*                                     SMART CONTRACT FUNCTIONS                             */\n    /********************************************************************************************/\n\n   /**\n    * @dev Add an airline to the registration queue\n    *      Can only be called from FlightSuretyApp contract\n    *\n    */   \n    function registerAirline\n                            (   \n                                address _airlineAddress\n                            )\n                            external\n    {\n        airlines.push(_airlineAddress);\n        isActiveAirline[_airlineAddress] = false;\n        emit airlineRegistered(_airlineAddress);\n    }\n\n    /**\n     * @dev Vote for an airline\n     *      Can only be called from FlightSuretyApp contract\n     *\n     */\n    function addAirlineVotes(address _newAirline, address _senderAddress) external requireIsOperational returns(address[]) {\n        airlineVotes[_newAirline].push(_senderAddress);\n    }\n\n    /**\n     * @dev Get the list of airline votes\n     *      Can only be called from FlightSuretyApp contract\n     *\n     */\n    function getAirlineVotes(address _airlineAddress) external view requireIsOperational returns(address[]) {\n        return airlineVotes[_airlineAddress];\n    }\n\n    /**\n     * @dev check if the airline has voted\n     *      Can only be called from FlightSuretyApp contract\n     *\n     */\n    function isAirlineVoted(address _newAirline, address _senderAddress) external view requireIsOperational returns (bool){\n        bool isAlreadyVoted = false;\n        for (uint256 i=0; i<airlineVotes[_newAirline].length; i.add(1)){  //is it worth using safemath?\n            if(airlineVotes[_newAirline][i] == _senderAddress){\n                isAlreadyVoted = true;\n            }\n        }\n        return isAlreadyVoted;\n    }\n\n    /**\n     * @dev check if the airline has already been registered\n     *      Can only be called from FlightSuretyApp contract\n     *\n     */\n    function isAirlineRegistered(address _newAirline) external view requireIsOperational returns(bool) {\n        bool isRegistered = false;\n        for(uint256 i = 0; i < airlines.length; i++) {\n            if(airlines[i] == _newAirline) {\n                isRegistered = true;\n            }\n        }\n        return isRegistered;\n    }\n\n    /**\n     * @dev Get the list of registered airlines\n     *      Can only be called from FlightSuretyApp contract\n     *\n     */\n    function getRegisteredAirlines() external view requireIsOperational returns(address[]) {\n        return airlines;\n    }\n\n\n    /**\n     * @dev Activate an airline\n     *      Can only be called from FlightSuretyApp contract\n     *\n     */\n    function activateAirline(address _airlineAddress) external payable requireIsOperational {\n        isActiveAirline[_airlineAddress] = true;\n        activeAirlines.push(_airlineAddress);\n        fund(_airlineAddress);\n        emit airlineFunded(_airlineAddress);\n    }\n\n   /**\n    * @dev Buy insurance for a flight\n    *\n    */   \n    function buy\n                            (    \n                            address _airline,\n                            string _flight,\n                            uint256 _timestamp,\n                            address _passenger,\n                            uint256 _insuranceAmount\n                            )\n                            external\n                            payable\n                            requireIsOperational\n    {\n        bytes32 flightKey = getFlightKey(_airline, _flight, _timestamp);\n        bytes32 insuranceId = keccak256(abi.encodePacked(flightKey, _passenger));\n        insuranceDetails[insuranceId] = Insurance({\n            id: insuranceId,\n            isPaid: false,\n            owner: _passenger,\n            amount: _insuranceAmount\n        });\n        passengersEnsured[flightKey].push(_passenger);\n        fund(_airline);\n        emit insurancePurchased(_airline, _flight,  _timestamp,  _passenger, _insuranceAmount,  insuranceId);\n    }\n\n    /**\n     *  @dev Credits payouts to insurees\n    */\n    function creditInsurees\n                                (\n                                    address _airline,\n                                    string _flight,\n                                    uint256 _timestamp,\n                                    address _passenger,\n                                    uint8 creditRate\n\n                                )\n                                external\n                                requireIsOperational\n    {\n        bytes32 flightKey = getFlightKey(_airline, _flight, _timestamp);\n        bytes32 insuranceId = keccak256(abi.encodePacked(flightKey, _passenger));\n        require(insuranceDetails[insuranceId].id==insuranceId,\"No such insurance Exists\");\n        require(insuranceDetails[insuranceId].isPaid==false,\"Already claimed this amount\");\n        uint256 currentAirlineBalance = walletBalance[_airline];\n        uint256 amountCreditedToPassenger = insuranceDetails[insuranceId].amount.mul(creditRate).div(10);\n        require(currentAirlineBalance >= amountCreditedToPassenger, \"Airline Doesn't have enough funds. Please check later.\");\n        insuranceDetails[insuranceId].isPaid = true;\n        walletBalance[_airline] = currentAirlineBalance.sub(amountCreditedToPassenger);\n        walletBalance[_passenger] = walletBalance[_passenger].add(amountCreditedToPassenger);\n        emit insuranceClaimed(_airline,_flight,_timestamp,_passenger,amountCreditedToPassenger,insuranceId);\n\n    }\n    \n\n    /**\n     *  @dev Transfers eligible payout funds to insuree\n     *\n    */\n    function pay\n                            (\n                                address _insureeAddress\n                            )\n                            external\n                            payable\n    {\n        require(walletBalance[_insureeAddress] > 0, \"There is no balance available in your wallet\");\n        uint256 withdrawAmount = walletBalance[_insureeAddress];\n        walletBalance[_insureeAddress] = 0;\n        //Should it be msg.sender here???\n        _insureeAddress.transfer(withdrawAmount);\n        emit amountWithdrawn(_insureeAddress, withdrawAmount);\n    }\n\n   /**\n    * @dev Initial funding for the insurance. Unless there are too many delayed flights\n    *      resulting in insurance payouts, the contract should be self-sustaining\n    *\n    */   \n    function fund\n                            (   \n                                address _address\n                            )\n                            public\n                            payable\n    {\n    walletBalance[_address] = walletBalance[_address].add(msg.value);\n\n    }\n\n    function getFlightKey\n                        (\n                            address airline,\n                            string memory flight,\n                            uint256 timestamp\n                        )\n                        pure\n                        internal\n                        returns(bytes32) \n    {\n        return keccak256(abi.encodePacked(airline, flight, timestamp));\n    }\n    /**\n     * @dev Check if the airline is funded/activated\n     *      Can only be called from FlightSuretyApp contract\n     *\n     */\n    function isAirlineActivated(address airlineAddress) external view requireIsOperational returns(bool) {\n        return isActiveAirline[airlineAddress];\n    }\n    function getPassengersEnsured(bytes32 key) external view returns (address[]){\n        return passengersEnsured[key];\n    }\n     /**\n    * @dev Fallback function for funding smart contract.\n    *\n    */\n    function() external payable {\n        fund(msg.sender);\n    }\n\n}\n\n",
  "sourcePath": "/Users/bhavyesharma/Desktop/UDACITYND/FlightSurety/contracts/FlightSuretyData.sol",
  "compiler": {
    "name": "solc",
    "version": "0.4.24+commit.e67f0147.Emscripten.clang"
  },
  "schemaVersion": "2.0.1",
  "updatedAt": "2019-06-04T00:01:06.270Z"
}